:02000002D0002C
:1040000000400D0080640D00000005000C0005015B
:0840100004014601000000005C
:10401800DC5E0D0009480A49884208B505D0094AFE
:10402800824202D0121A01F07BFE0748074A00219B
:10403800121A01F080FE014808BD00BFF8E2032013
:10404800E0630D0070E3032070E30320F0E7032032
:1040580070B501F047FC074C074BE41AA40800258B
:104068001E46A54204D056F8253098470135F8E792
:1040780070BD00BFE0630D00A8630D0000F0C0B87C
:1040880008B500F063F9BDE8084001F0F9BB00F09D
:104098009DBB00F0A3BB00F0A1BB0078B0FA80F094
:1040A8004009704701230370704700001FB5124C88
:1040B800684601F0B9F96946204601F0FFF96846FB
:1040C80001F06BF901F00AFB0C4901F0ADF801F0C1
:1040D80005FB21680A4C01F0BAF80121208801F09B
:1040E80046FC4FF4FA7000F0ADFB0021208801F087
:1040F8003EFC04B010BD00BFACE30320F05E0D0031
:1041080000E303201FB5124C684601F08DF969469B
:10411800204601F0D3F9684601F03FF901F0DEFAD4
:104128000C4901F081F801F0D9FA21680A4C01F034
:104138008EF80121208801F01AFC4FF4FA7000F083
:1041480081FB0021208801F012FC04B010BD00BFE3
:10415800BCE30320FD5E0D0000E3032007B5002348
:10416800019300931A4600F0D1FA03B05DF804FBFE
:1041780030B585B0684601F057F91B49684601F02B
:10418800C9F9044668B1194D01242C7001F0A6FA4A
:104198002978174A144B002908BF1346154A0021ED
:1041A80010E01349684601F0B5F998B10F4D2C702D
:1041B80001F094FA29780E4A0B4B002908BF1346E0
:1041C8000C4A214601F07CF80B4B2146188801F077
:1041D800CEFB04E001F082FA084901F038F868469D
:1041E80001F0DBF805B030BD0A5F0D0094E3032051
:1041F8000F5F0D00155F0D00FCE20320295F0D0025
:1042080008B501F06BFA4FF4165101F05BFA114B47
:104218000121188801F09AFB0F4B0121188801F041
:1042280095FB0E4B0121188801F090FB0C4B0321E4
:10423800188801F08BFB0B490B48FFF78FFF0B49E0
:104248000B48FFF78BFF0B490B48BDE80840FFF709
:1042580085BF00BFF8E2032000E30320FCE203204F
:10426800CCE30320B5400D00405F0D000D410D006B
:10427800575F0D0079410D006E5F0D0007B501F025
:104288005BF964280DD8FF230093002319466422A4
:1042980000F0CCFA044B01464FF4FA72188801F08A
:1042A8007FFB03B05DF804FBF8E2032038B504682F
:1042B80005467CB16368013B63605BB923682046AF
:1042C8009B689847A368013BA3601BB923682046F5
:1042D800DB689847284638BD1FB5154C154B16495D
:1042E8001A6823788DF8003002A83C2300F0FEFB02
:1042F80003A8FFF7DBFF114B11491A6823788DF8E3
:10430800003002A83C2300F0F1FB03A8FFF7CEFF22
:104318000C4B0D491A6823788DF8003002A83C230D
:1043280000F0E4FB03A8FFF7C1FF04B010BD00BF15
:10433800A8E3032084E303204E5F0D0098E30320E5
:10434800655F0D0074E303207C5F0D001FB5FFF768
:10435800C3FF42F2107000F075FA0849684601F090
:10436800A2F86846FFF78AFF684601F016F84CF293
:10437800503000F067FA05B05DF804FBACE30320A9
:10438800F8B51F4B1F4E204D204C214F01221A70AB
:1043980000F078F80A221146304601F0A8F82A46BB
:1043A800214630461B4E01F059FB0A221146304681
:1043B80001F09DF83046184E2A46214601F04EFB82
:1043C8003946304601F030F83046144E2A46214628
:1043D80001F044FB3946304601F026F82A462146CA
:1043E80030460F4E01F03AFB0A221146304601F0E2
:1043F8007EF82A4621463046BDE8F84001F02EBB3B
:10440800A8E3032084E3032070E30320A3530D00F3
:104418003A600D0098E30320ACE30320BCE30320DB
:1044280074E3032008B5024B1B689B68019308BD21
:104438004802030008B5024B1B681B69019308BDBD
:104448004802030008B5024B1B685B69019308BD6D
:104458004802030008B5024B1B681B6B019308BD9B
:104468004802030008B5024B1B685B6C019308BD4A
:104478004802030008B5024B1B685B69019308BD3D
:104488001802030008B5024B1B681B68019308BD9E
:104498002C02030008B5024B1B685B68019308BD3A
:1044A8002C02030008B5024B1B689B68019308BDEA
:1044B8002C02030008B5024B1B68DB68019308BD9A
:1044C8002C02030008B5024B1B681B69019308BD49
:1044D8002C02030008B5024B1B68DB6F019308BD73
:1044E8002C02030008B5024B1B681B6A019308BD28
:1044F8002802030008B5024B1B685B6A019308BDDC
:104508002802030008B5024B1B689B6A019308BD8B
:104518002802030008B5024B1B68DB6A019308BD3B
:104528002802030008B5024B1B681B6B019308BDEA
:104538002802030008B5024B1B685B6B019308BD9A
:104548002802030008B5024B1B681B6C019308BDC9
:104558002802030008B5024B1B685B69019308BD7C
:104568006402030008B5024B1B689B68019308BDF1
:104578006802030008B5024B1B68DB68019308BD9D
:104588006802030008B5024B1B68DB69019308BD8C
:104598003002030008B5024B1B681B6A019308BD73
:1045A8003002030008B5024B1B681B68019308BD65
:1045B8003C02030008B5024B1B68DB68019308BD89
:1045C8003C02030008B5024B1B681B69019308BD38
:1045D8003C02030008B5024B1B685B69019308BDE8
:1045E8003C02030008B5024B1B689B69019308BD98
:1045F8003C02030008B5024B1B68DB69019308BD48
:104608003C02030008B5024B1B681B6A019308BDF6
:104618003C02030008B5024B1B689B6A019308BD66
:104628003C02030008B5024B1B681B68019308BDD8
:104638004C02030008B5024B1B685B68019308BD78
:104648004C02030008B5024B1B681B69019308BDA7
:104658004C02030008B5024B1B685B69019308BD57
:104668004C02030008B5024B1B689B69019308BD07
:104678004C02030008B5024B1B68DB69019308BDB7
:104688004C02030008B5024B1B681B6A019308BD66
:104698004C02030008B5024B1B685B68019308BD18
:1046A8002002030008B5024B1B685B69019308BD33
:1046B8002002030008B5024B1B68DB6C019308BDA0
:1046C8002002030008B5024B1B685B6D019308BD0F
:1046D8002002030008B5034B1B68D3F88830019308
:1046E80008BD00002002030008B5034B1B68D3F87F
:1046F8009430019308BD00002002030008B5024B66
:104708001B681B6A019308BD4402030008B5024BED
:104718001B685B6A019308BD4402030008B5024B9D
:104728001B68DB6B019308BD4402030008B5024B0C
:104738001B685B68019308BD4002030008B5024B83
:104748001B689B68019308BD4002030008B5024B33
:104758001B68DB68019308BD4002030008B5024BE3
:104768001B681B69019308BD4002030008B5024B92
:104778001B685B69019308BD4002030008B5024B42
:104788001B689B69019308BD4002030008B5024BF2
:104798001B68DB69019308BD4002030008B5024BA2
:1047A8001B681B6A019308BD4002030008B5024B51
:1047B8001B681B6B019308BD4002030008B5024B40
:1047C8001B685B6B019308BD4002030008B5024BF0
:1047D8001B681B68019308BD1C02030008B5024B47
:1047E8001B685B68019308BD1C02030008B5024BF7
:1047F8001B689B68019308BD1C02030008B5024BA7
:104808001B685B6A019308BD1C02030008B5024BD4
:104818001B68DB6A019308BD1C02030008B5024B44
:104828001B681B6B019308BD1C0203008A4230B54C
:1048380007D0039D441AED1A6C43521A94FBF2F404
:10484800E01830BD0021FFF72DBF10B5836804467E
:104858000BB901F008F9C3689847A3681BB1032294
:104868002146204698472046BDE81040FFF711BC76
:1048780070470020704710B50446FFF70AFC204631
:1048880010BD08B508B1FFF7F6FF08BD10B583687D
:10489800044613B1032201469847204610BD38B597
:1048A800C468D4B12378022B02D1E068FFF796FFE1
:1048B80065682DB12846FFF7E9FF2846FFF7E9FBB1
:1048C800A5682DB12846FFF7E1FF2846FFF7E1FB71
:1048D8002046BDE83840FFF7DCBB38BD13B50446B9
:1048E80091E8050000234B600B602060626001A81E
:1048F80001930093FFF7DAFC204602B010BD0B6865
:10490800036013B15A6801325A607047F7B50C4614
:1049180002AD54F8043B45F8083D06460F4601A889
:104928002146FFF7ECFF29463046FFF7D7FF01A8DD
:10493800FFF7BCFC2046FFF7B9FC3846FFF7A9FB98
:10494800304603B0F0BD13B50B46044603C88DE8E6
:10495800030093E8030084E803009DE8030083E86C
:10496800030002B010BD826810B50AB901F07BF8E7
:10497800C368BDE81040184708B5006800F1100189
:10498800FFF7F1FF08BD826810B50AB901F06BF8AE
:10499800C368BDE81040184708B5006800F1100169
:1049A800FFF7F1FF08BD38B5002383608B68044624
:1049B8000D462BB102229847EB68E360AB68A36011
:1049C800204638BD2DE9F0414FF69C7386B0046847
:1049D800B1F904208B8000230F688DF800300B603C
:1049E8004FF00200D4E84F1F994203D1C4E8450FA5
:1049F800002DF7D102D08DF800106AE014F10C05F3
:104A08001EBFE76022821F460123BFF35F8F00208D
:104A1800637004F10803BFF35F8F53E8006F43E846
:104A28000002002AF9D1BFF35F8F002E51D0FFF7A3
:104A380041FE20B129463046FFF795FF43E0314655
:104A48006846FFF7B0FFE068B4F9105008B101F00C
:104A58008DF904901020ADF81450FFF718FB0546A7
:104A680030B34FF00008C0F808801820FFF70FFB9C
:104A78000446C0B1C0F8088001466846FFF763FFE6
:104A8800029BA268A360039B0292E268E360BDF800
:104A98001430A3824FF69C73ADF81430049B039234
:104AA8002361CDF810800E4BEB600E4B2C60AB6091
:104AB8000498FFF793FE6846FFF7E8FE00222946B0
:104AC8000948FFF7FFFD3046FFF7E0FE3046FFF7E5
:104AD800E0FA3846FFF782FE06B0BDE8F08100BF75
:104AE80081490D00DD4B0D0053480D002DE9F04FB5
:104AF8008BB007AD4FF0000B0646994614200C23E7
:104B08000F4690469DF850A0C5F804B0C5F808B007
:104B18000793FFF7BCFA044638B180F800B080F874
:104B280001B0C0F804B0C0F808B000231020039406
:104B38000493FFF7ACFA28B1012343608360234B49
:104B48000360C4600490224B08930820FFF79FFA83
:104B5800044628B1039B40F8043B04A9FFF7CFFEA5
:104B680000955FFA8AF34A46414638460994FFF7AA
:104B7800C5FDB8B9039B5B7803F0FF0293B94FF604
:104B88009C7305A903A80592ADF81830FFF71AFF22
:104B98000598FFF723FE05A80999FFF7B7FE06A8B1
:104BA800FFF784FB039B059304A906A8FFF7A7FE5C
:104BB80005A93046FFF792FE06A8FFF777FB04A881
:104BC800FFF774FB30460BB0BDE8F08FA05F0D0017
:104BD800454D0D00022AF8B5044606D0032A17D021
:104BE800012A20D10B6803601DE018200E68FFF72A
:104BF8004EFA054650B13146FFF7D5FE3069B6F991
:104C0800147008B101F0B2F82861AF8225600AE09B
:104C1800046844B12069FFF7E1FD2046FFF736FE3E
:104C28002046FFF736FA0020F8BD38B50023836028
:104C38008B6804460D462BB102229847EB68E36067
:104C4800AB68A360204638BD022A70B5044606D07A
:104C5800032A11D0012A17D10B68036014E014202D
:104C68000E68FFF714FA054620B13146FFF7DDFF5D
:104C7800337C2B74256007E004682CB12046FFF7CD
:104C880005FE2046FFF705FA002070BDF0B50023A9
:104C980087B00C46BFF35F8F50E8006F40E80032E2
:104CA800002AF9D1BFF35F8F002E3ED01846FFF7D8
:104CB80001FD074620B121463046FFF764FE2EE08D
:104CC800314601A8FFF7B1FF23788DF81430102082
:104CD800FFF7DDF90546D0B187601420FFF7D7F953
:104CE800044678B18760014601A8FFF72CFE039BB4
:104CF800A268A360049B0392E268E3609DF8143005
:104D0800049223740A4BEB600A4B2C60AB6001A839
:104D1800FFF7BCFD002229460748FFF7D3FC3046C1
:104D2800FFF7B4FD3046FFF7B4F907B0F0BD00BF98
:104D3800A1490D00514C0D0053480D0030B585B008
:104D480004460D4668461146FFF7E0FD7CB124B2E3
:104D580028460DB101F00AF8029002A96846ADF89C
:104D68000C40FFF72FFE0298FFF738FD1DE0009872
:104D78008DF808404FF00102D0E84F3FA34203D11D
:104D8800C0E8412F0029F7D102D08DF808300CE097
:104D980010F10C014FF0010318BF0373BFF35F8FCD
:104DA800043000F8033CFFF771FF01A8FFF77EFA13
:104DB80005B030BD002211464068FFF7EFBC002265
:104DC80011464068FFF7FABC00224068FFF7EEBCC6
:104DD800002281F001014068FFF7D8BC00231A4681
:104DE80019464068FFF7CABC00231A4619464068AE
:104DF800FFF7BCBC002211464068FFF7AFBC002299
:104E080011464068FFF79ABC002202214068FFF76C
:104E18009DBC00231A464068FFF788BC024B03225A
:104E28005A60024A1A607047D0E30320BC5F0D0045
:104E38007047F8B5064615460C468F18BC4206D092
:104E4800336814F8011B9B6830469847F6E72846F4
:104E5800F8BD0022007CFFF745BB0021007CFFF76E
:104E680049BB0021007CFFF74DBB0021007CFFF708
:104E780051BB0021007CFFF755BB10B50446FFF776
:104E880008F9204610BD000010B504464FF47A73A7
:104E98000846A3600021044B207461602360FFF77B
:104EA80051FB204610BD00BFF05F0D000021007CC3
:104EB800FFF740BB704710B50446FFF7EAF82046F5
:104EC80010BDF0B5037D062B8DB00E4600F104072A
:104ED8004FF0000402D000F1080518E00CAD394687
:104EE80005F8304D2F232A460A20FFF733FB2846C2
:104EF80000F057FF33680246DB682946304698477A
:104F08000FE024B12E21304600F092F9044415F840
:104F1800011D0A22304600F0D1F9BD420444F0D107
:104F280020460DB0F0BD000010B5054B0446112217
:104F380040F8043B002100F0FEFE204610BD00BFF3
:104F480018600D000346074A10B543F8042B01F119
:104F5800100251F8044B43F8044B9142F9D10A78F6
:104F68001A7010BD18600D0010B59DF8084044EA8D
:104F7800032343EA024242EA0161042341600375C4
:104F880010BD37B50D788B784A78C97800912946D5
:104F9800FFF7EAFF03B030BD014B024A1A607047C1
:104FA800D8E30320DC600D00002211464068FFF7BB
:104FB800F5BB002211464068FFF700BC002240689C
:104FC800FFF7F4BB002281F001014068FFF7DEBB68
:104FD80000231A4619464068FFF7D0BB00231A463B
:104FE80019464068FFF7C2BB002211464068FFF728
:104FF800B5BB002211464068FFF7A0BB0022022182
:105008004068FFF7A3BB00231A464068FFF78EBB32
:1050180010B103685B681847704738B504460068E4
:10502800D0B1FFF7FFF9B8B9237C1BB9206808B1E4
:10503800FFF700FA656855B1AB681BB10322294632
:10504800284698472846FFF724F80023636020681D
:10505800FFF7F8F90023236038BD000038B50B4B83
:1050680003600446D0F8CC0108B1FFF714F8D4F86F
:10507800C4512DB12846FFF7D0FF2846FFF709F89D
:10508800A06808B1FFF7C4FF204638BD10610D00C5
:1050980038B50D4C0D4B23600025022304F5E47050
:1050A8006360A560C4F8C451C4F8C851FFF7DAF9C1
:1050B800074BC4F8CC5123602046064A0649BDE890
:1050C800384000F0CBBC00BFDCE3032044610D0096
:1050D80010610D0070E3032065500D0000231A468F
:1050E8004068FFF723BB002202214068FFF72EBB70
:1050F800002211464068FFF721BB00221146406894
:10510800FFF72CBB00231A4619464068FFF72EBB51
:1051180000231A4619464068FFF730BB002281F089
:1051280001014068FFF732BB00224068FFF73EBB31
:10513800002211464068FFF741BB00221146406833
:10514800FFF72CBB70B58CB014460646FFF7ECFE93
:105158000CAB0022114643F8302D2046FFF70AFA1F
:10516800014658BB009B4BB35A68022A0ED00A2A44
:1051780024D15C69112201A800F0DDFD06238DF819
:10518800143001AD04F10803183405E059693046BC
:105198000431FFF7F6FE11E0186859682A4603C281
:1051A8000833A3421546F7D101A906A807ADFFF7B2
:1051B800C9FE0FCD341D0FC42B6823700098FFF76C
:1051C800D1F930460CB070BD024B034A1A60002278
:1051D8005A607047ACE5032044610D00F8B50646F7
:1051E8000D468F180024BD420CD0336815F8011BFA
:1051F8009B6830469847002801DB0444F3E7002CFD
:1052080008BF04462046F8BD70B505460C4608465A
:1052180049B100F0C6FD2B68024621462846DB68E6
:10522800BDE87040184770BD08B5FFF7EDFF08BD31
:1052380003689B68184738B50D210546FFF7F8FF46
:105248000A2104462846FFF7F3FF204438BD38B545
:105258000546FFF7D9FF04462846FFF7ECFF204430
:1052680038BD30B58BB00B4600218DF82410012ACB
:1052780098BF0A220DF12304B3FBF2F505FB1233A4
:1052880003F0FF03092B94BF30333733DBB22146D9
:1052980004F801392B46002DEED1FFF7B5FF0BB00E
:1052A80030BD10B42AB903685DF8044B9B68C9B2D5
:1052B8001847D2B25DF8044BFFF7D3BFFFF7F1BF31
:1052C8000CB42DE9F04387B000AF07F13804054668
:1052D80054F8049B3C600E4623464A461421381D68
:1052E800FFF78CFA132805D8391D2846FFF78CFFDD
:1052F800044613E000F1080323F00703E846ADEB8A
:10530800030D411C23464A4668463C60FFF776FA7F
:1053180069462846FFF778FF0446C5461EB1284669
:10532800FFF789FF044420461C37BD46BDE8F0431B
:1053380002B0704710B50446FFF7A8FA204610BD22
:105348000348044A04490023836000F087BB00BF78
:10535800B4E5032070E303203D530D00704710B5FA
:105368000446FEF796FE204610BD000070B5084BB7
:105378000360044600250E4640F80C5FFFF76AF804
:1053880030462671FFF7FEF8A560204670BD00BFC5
:1053980078610D000079FFF7FDB810B50446006884
:1053A800FFF71CFA204610BD10B50446006808B186
:1053B800FFF714FA00232360A360636010BD38B5BB
:1053C80004460D4600680131FFF710FA10B184E871
:1053D8002100012038BD10B50368044613B14368A5
:1053E8008B4207D22046FFF7EAFF20B1A3680BB92A
:1053F80022681370012010BD70B50E461146044690
:105408001546FFF7E8FF18B92046FFF7CDFF09E07A
:105418002A463146A560206800F082FC2268A3680D
:105428000021D154204670BD38B5002304460360DE
:105438004360836003730D4639B1084600F0B1FC40
:10544800294602462046FFF7D7FF204638BD38B523
:10545800054600680C4660B16A688B689A4206D3B4
:10546800096800F07AFCA368AB6000230AE0FFF744
:10547800B5F923682B6063686B60A368AB60002391
:1054880023606360A36038BD884210B50B460446AC
:1054980007D0096819B19A68FFF7AEFF01E0FFF776
:1054A80083FF204610BD10B5002304460360436007
:1054B80083600373FFF7E8FF204610BD884210B5EC
:1054C800044601D0FFF7C3FF204610BD38B5054696
:1054D8000C4641B1084600F064FC214602462846C5
:1054E800FFF78AFF01E0FFF75FFF284638BD10B5D8
:1054F800044600238AB023606360A36023730846D0
:1055080001A900F088F901A92046FFF7DFFF20462E
:105518000AB010BD08B582680B4612B919B9012046
:1055280008BD11B90368187802E0006800F00BFCA8
:10553800B0FA80F0400908BD006808B100F0DEBB91
:1055480070470000054B4FF69C7200205A804FF6BA
:10555800FF7218709A80FFF79DB800BFC4E503205A
:10556800024B1A68024B1A60704700BF04E303201D
:10557800CCE50320704741747047007CFFF74AB8B8
:10558800007CFFF71FB8007CFFF72CB8007CFFF702
:1055980021B8007CFFF72EB810B50446FEF779FD58
:1055A800204610BD70B5457C04460E4625B9007CE2
:1055B800FFF730F8002805DD3146207CBDE8704053
:1055C800FEF7F8BF284670BD10B5044608461146D8
:1055D800002262604FF47A72A260054A22600122BA
:1055E800207462741A46FEF7DDFF204610BD00BF26
:1055F800B4610D00007CFFF705B8000038B50C4D0C
:10560800296811F0010411D12846FEF746FD68B15A
:10561800084A094B09482146FFF7D6FF2846FEF7F6
:1056280041FD074A0749054800F018FA034838BD04
:1056380068E603206CE60320E4E50320D0E50320B8
:1056480070E303207D550D004174704770470021B9
:10565800007CFFF707B80121007CFFF703B8007C46
:10566800FEF7F8BF007CFEF7EDBF38B50446007CB6
:105678000D46FEF7EFFF002801DC607C20B12946CB
:10568800207CFEF7F7FF012038BD007CFEF7FABF4B
:1056980010B50446FEF7FDFC204610BD10B50446C3
:1056A800002363604FF47A73A360054B23600123E2
:1056B8000846217463741146FEF7B4FF204610BDF6
:1056C800E4610D000022007CFEF7B4BF10B514227F
:1056D8000446002100F02FFB204610BD30B50E4DCA
:1056E80087B001A8FFF7F2FF296811F0010410D173
:1056F8002846FEF7D2FC60B101AA21460748FFF709
:10570800CDFF2846FEF7CEFC054A0649034800F0BF
:10571800A5F9024807B030BDF0E60320F4E60320FF
:1057280070E3032055560D00002211464068FFF72C
:1057380015B8002211464068FFF730B8002211461C
:105748004068FFF73BB800224068FFF72FB80022F7
:1057580081F001014068FFF719B800231A4619467D
:105768004068FFF70BB800231A4619464068FEF751
:10577800FDBF002211464068FEF7E0BF002202216B
:105788004068FEF7E3BF00231A464068FEF7CEBF25
:10579800024B04225A60024A1A60704708E7032045
:1057A80014620D0010B5044600F0FBFA0138231806
:1057B8002046984206D20278197800F8011B03F8AF
:1057C8000129F6E710BD70B50C46911E222920D894
:1057D8002546294610B9234430220EE0B0FBF2F6E4
:1057E80002FB1600C1B205F8011B092894BF30312D
:1057F800573105F8011C3046EBE7994202D201F80F
:10580800012BFAE7002320460B70FFF7CBFF204659
:1058180070BD002070BD38B5031E0C4615460BDA66
:10582800B3F1004F4FF02D0214BF58421846012320
:105838000A702A46194400E00123FFF7C4FF2046F6
:1058480038BD000008B50C4B33B1FFF747FF0368BC
:105858001B699847002809DC084B63B1FFF7CEFEA7
:1058680003681B699847002803DC08BDAFF3008074
:10587800F2E7AFF3008008BD000000000000000060
:1058880008B5FFF7DFFFFEF7F5FD014B186008BD0F
:1058980014E7032007B5002300931A466FF0770139
:1058A800FEF722FF03B05DF804FB000007B543884C
:1058B8000A2B08D0502B09D1094B1B683BB103B008
:1058C8005DF804EB1847FFF7E5FF06E000230093B7
:1058D8001A466FF07701FEF707FF03B05DF804FB87
:1058E80010E7032008B500210448FEF717FF002140
:1058F8000348BDE80840FEF7EDBE00BF0000000009
:10590800B5580D0010B504460F48FFF743FD28B100
:10591800A4F10B03022B01D8002010BD00F05CF8A5
:10592800FFF7C4FA08B1012CF6D9FFF767FEFFF7B5
:1059380061FE18B1A4F10903012BEDD9232C8CBF0A
:105948000020012010BD00BF30E70320232838B510
:1059580004460D460AD8FF2908D0FFF7D3FF28B11F
:1059680029462046BDE83840FEF79CBD38BD38B50D
:1059780004460D46FEF79EFDFF2810D0062804D8E1
:105988004D2323FA00F0C30709D42046FFF7BAFFD6
:1059980028B129462046BDE83840FEF793BD38BDFA
:1059A80070B504460D461646FFF7ACFF98B10221C4
:1059B8002046FEF76FFD02280DD12046FEF77AFD3E
:1059C800012801D0042806D1324629462046BDE8E0
:1059D8007040FEF77FBD70BD38B50B4D296811F0DA
:1059E80001040FD12846FEF758FB58B12146074855
:1059F800FFF74AFA2846FEF755FB054A05490348CA
:105A080000F02CF8014838BD18E703201CE70320F4
:105A180070E30320394E0D0070B50C4C0C4E0D4D43
:105A280000212046FFF7A2FC20460B4C32462946AF
:105A380000F014F801212046FFF798FC3246294669
:105A48002046BDE8704000F009B800BF30E70320E9
:105A580070E3032065530D0040E703200B46014621
:105A6800184600F04FB908B5FEF7D0FE244B1A6867
:105A7800D0075CBF01221A60224B1A68D1075CBFAD
:105A880001221A60204B1A68D2075CBF01221A60F3
:105A98001E4B1A68D0075CBF01221A601C4B1A689B
:105AA800D1075CBF01221A601A4B1A68D2075CBF83
:105AB80001221A60184B1A68D0075CBF01221A60CD
:105AC800164B1A68D1075CBF01221A60144B1A687A
:105AD800D2075CBF01221A60124B1A68D0075CBF5C
:105AE80001221A60104B1A68D1075CBF01221A60A4
:105AF8000E4B1A68D2075CBF01221A60704700BFBC
:105B08007CE7032078E7032074E7032070E703208D
:105B18006CE7032068E7032064E7032060E70320BD
:105B28005CE7032058E7032054E7032050E70320ED
:105B3800184B1A68D1075CBF01221A60164B1A6805
:105B4800D2075CBF01221A60144B1A68D0075CBFE9
:105B580001221A60124B1A68D1075CBF01221A6031
:105B6800104B1A68D2075CBF01221A600E4B1A68E4
:105B7800D0075CBF01221A600C4B1A68D1075CBFC2
:105B880001221A600A4B1A68D2075CBF01221A6008
:105B9800704700BF9CE7032098E7032094E70320A1
:105BA80090E703208CE7032088E7032084E703209D
:105BB80080E70320184B1A68D1075CBF01221A60DE
:105BC800164B1A68D2075CBF01221A60144B1A6878
:105BD800D0075CBF01221A60124B1A68D1075CBF5C
:105BE80001221A60104B1A68D2075CBF01221A60A2
:105BF8000E4B1A68D0075CBF01221A600C4B1A685A
:105C0800D1075CBF01221A600A4B1A68D2075CBF31
:105C180001221A60704700BFBCE70320B8E70320E1
:105C2800B4E70320B0E70320ACE70320A8E703208C
:105C3800A4E70320A0E70320244B1A68D0075CBF21
:105C480001221A60224B1A68D1075CBF01221A6030
:105C5800204B1A68D2075CBF01221A601E4B1A68D3
:105C6800D0075CBF01221A601C4B1A68D1075CBFC1
:105C780001221A601A4B1A68D2075CBF01221A6007
:105C8800184B1A68D0075CBF01221A60164B1A68B5
:105C9800D1075CBF01221A60144B1A68D2075CBF97
:105CA80001221A60124B1A68D0075CBF01221A60E1
:105CB800104B1A68D1075CBF01221A600E4B1A6894
:105CC800D2075CBF01221A60704700BFECE70320CF
:105CD800E8E70320E4E70320E0E70320DCE703200C
:105CE800D8E70320D4E70320D0E70320CCE703203C
:105CF800C8E70320C4E70320C0E703200A220021E5
:105D080000F0DEB810B5054C13462CB10A46014622
:105D18000220AFF3008010BD204610BD0000000037
:105D280010B5431E0A44914204D011F8014B03F800
:105D3800014FF8E710BD02440346934202D003F82E
:105D4800011BFAE7704710F8012B11F8013B012AF3
:105D580028BF9A42F7D0D01A7047034611F8012B92
:105D680003F8012B002AF9D170470000024B0146C5
:105D7800186800F003B800BF6CE3032070B506464E
:105D880008460C4600F00DF8451C29463046FEF73B
:105D980045FD064618B12A462146FFF7C1FF3046A1
:105DA80070BD034613F8012B002AFBD1181A0138DD
:105DB800704700002DE9F04780464048D0F8009031
:105DC8000F463D4615F8014B09EB0400407800F0FA
:105DD800080000F0FF0608B12F46F2E72D2C03D18A
:105DE800BD1C7C78012603E02B2C04BF7C78BD1CED
:105DF80013B1102B0AD15BE0302C57D1287800F072
:105E0800DF0058284DD16C7810230235002E14BFBE
:105E18004FF0004C6FF0004C0027BCFBF3FA3846FB
:105E280003FB1ACC09EB040E9EF801E01EF0040FE8
:105E380001D0303C0BE01EF0030E1BD0BEF1010F69
:105E48000CBF4FF0370E4FF0570ECEEB0404A342B1
:105E580010DDB7F1FF3F0AD0504506D801D164459F
:105E680003DC03FB0040012701E04FF0FF3715F882
:105E7800014BD7E77B1C0CD1002E4FF0220314BF37
:105E88004FF000406FF00040C8F800302AB9BDE874
:105E9800F08706B1404272B107B1691E1160BDE8D2
:105EA800F0873024002BB1D10823AFE70A23ADE7F0
:105EB800302CA3D0AAE7BDE8F08700BF08E3032091
:105EC80013460A46014602480068FFF773BF00BF41
:105ED8006CE303201D400D0059400D0085400D0066
:105EE80089400D0000000000504D313020284B3112
:105EF80036293A2000504D31302028463433293A8B
:105F08002000747275650066616C7365004665698A
:105F18006E7374617562616C61726D3A2025730AE3
:105F2800004665696E7374617562616C61726D3A81
:105F3800204572726F722100686F6F6B2D726573E6
:105F4800706F6E73652F504D31305F4B313600687E
:105F58006F6F6B2D726573706F6E73652F504D3157
:105F6800305F46343300686F6F6B2D726573706FE6
:105F78006E73652F4665696E7374617562616C61D5
:105F8800726D5F53747574746761727400000000F9
:105F9800000000000000000079480D007F480D0057
:105FA800A7480D008B480D007B480D00000000003D
:105FB800000000001B4E0D00114E0D00074E0D0095
:105FC800FD4D0D00F14D0D00E54D0D00D94D0D00B5
:105FD800D14D0D00C74D0D00BD4D0D004D510D00AB
:105FE8000000000000000000394E0D00834E0D0037
:105FF8005B4E0D003B4E0D00634E0D006B4E0D00C9
:10600800734E0D007B4E0D000000000000000000E4
:10601800CB4E0D00BD4E0D00BF4E0D0066006C6EE0
:1060280000666E00636F64650064657461696C0086
:106038000D0A00253031307520005D2000256400F0
:106048002C200028293A2000205B00636F6465201B
:106058003D200025690064657461696C73203D20EA
:1060680000626175640053657269616C0053657202
:1060780069616C31007479706500706172616D00DE
:10608800636D6400696400686E64007374726D0007
:1060980066696C74006C766C0061646448616E6457
:1060A8006C65720072656D6F766548616E646C65CB
:1060B8007200656E756D48616E646C657273004A36
:1060C800534F4E53747265616D4C6F6748616E64CF
:1060D8006C657200617070006E6F6E65007472613D
:1060E800636500696E666F007761726E0065727233
:1060F8006F720070616E696300616C6C0000000073
:1061080000000000000000000F500D0005500D00B9
:10611800FB4F0D00F14F0D00E54F0D00D94F0D005D
:10612800CD4F0D00C54F0D00BB4F0D00B14F0D00F9
:106138004D510D000000000000000000E5500D006A
:10614800EF500D00F9500D0003510D000D510D00D9
:1061580019510D0025510D0031510D0039510D0017
:1061680043510D004D510D000000000000000000DB
:1061780065530D0067530D005A00252B3033643AE0
:10618800253032750025592D256D2D256454254857
:106198003A254D3A2553257A0061736374696D6514
:1061A8000000000000000000000000007D550D0008
:1061B800A1550D00AD550D00E5510D0089550D0097
:1061C80095550D008F550D009B550D007F550D0001
:1061D80083550D00000000000000000055560D001A
:1061E80099560D0073560D00E5510D006D560D00C2
:1061F80057560D005F560D0093560D0067560D005B
:1062080051560D0000000000000000008F570D00DF
:1062180085570D007B570D0031570D006F570D0046
:1062280063570D0057570D004F570D0045570D0088
:106238003B570D004D510D0000202020202020202C
:10624800202028282828282020202020202020201E
:10625800202020202020202020881010101010102E
:10626800101010101010101010040404040404047A
:106278000404041010101010101041414141414114
:1062880001010101010101010101010101010101F6
:106298000101010110101010101042424242424206
:1062A80002020202020202020202020202020202C6
:1062B800020202021010101020000000000000006E
:1062C80000000000000000000000000000000000C6
:1062D80000000000000000000000000000000000B6
:1062E80000000000000000000000000000000000A6
:1062F8000000000000000000000000000000000096
:106308000000000000000000000000000000000085
:106318000000000000000000000000000000000075
:106328000000000000000000000000000000000065
:106338000000000000000000000000000000000055
:106348000000000000000000000000000000000045
:106358000000000000000000000000000000000035
:106368000000000000000000000000000000000025
:106378000000000000000000000000000000000015
:106388000000000000000000000000000000000005
:1063980000000000000000000000000043000000B2
:1063A80089430D00254E0D00A14F0D0099500D0099
:1063B800D1510D0049530D004D550D0069550D0083
:1063C80099570D00215A0D00755A0D00395B0D00C3
:0863D800BD5B0D00415C0D00EE
:1063E000020000000100000007000000A1610D0094
:1063F00040620D000000000044630D0064630D0066
:1064000084630D0000000000000000000000000098
:1064100000000000A4630D00000000000000000068
:10642000000000000000000000000000000000006C
:10643000000000000000000000000000000000005C
:10644000000000000000000000000000000000004C
:08645000000000000CE3032032
:10645800FFFFFFFF00000102030405060708090A01
:106468000B0C0D0E0F101112131415161718191AFC
:086478001B1C1D1E1F20280043
:046480007856341204
:04000003D0004018D1
:00000001FF
